{"abi":[{"type":"constructor","inputs":[],"stateMutability":"nonpayable"},{"type":"receive","stateMutability":"payable"},{"type":"function","name":"burnedRegisterNeuron","inputs":[{"name":"netuid","type":"uint16","internalType":"uint16"},{"name":"hotkey","type":"bytes32","internalType":"bytes32"},{"name":"amountToBurn","type":"uint256","internalType":"uint256"}],"outputs":[{"name":"","type":"bool","internalType":"bool"}],"stateMutability":"payable"},{"type":"function","name":"owner","inputs":[],"outputs":[{"name":"","type":"address","internalType":"address"}],"stateMutability":"view"},{"type":"function","name":"unstakeAndBurn","inputs":[{"name":"hotkeys","type":"bytes32[]","internalType":"bytes32[]"},{"name":"netuid","type":"uint256","internalType":"uint256"},{"name":"amounts","type":"uint256[]","internalType":"uint256[]"}],"outputs":[],"stateMutability":"nonpayable"},{"type":"event","name":"RegisterAttempt","inputs":[{"name":"netuid","type":"uint16","indexed":true,"internalType":"uint16"},{"name":"hotkey","type":"bytes32","indexed":false,"internalType":"bytes32"},{"name":"amountBurned","type":"uint256","indexed":false,"internalType":"uint256"},{"name":"caller","type":"address","indexed":true,"internalType":"address"},{"name":"success","type":"bool","indexed":false,"internalType":"bool"}],"anonymous":false},{"type":"event","name":"UnstakedAndBurned","inputs":[{"name":"hotkey","type":"bytes32","indexed":true,"internalType":"bytes32"},{"name":"amount","type":"uint256","indexed":false,"internalType":"uint256"},{"name":"burnedAmount","type":"uint256","indexed":false,"internalType":"uint256"}],"anonymous":false},{"type":"error","name":"InsufficientValue","inputs":[]},{"type":"error","name":"RefundFailed","inputs":[]}],"bytecode":{"object":"0x608060405234801561001057600080fd5b50600080546001600160a01b03191633179055610813806100326000396000f3fe6080604052600436106100385760003560e01c80638da5cb5b14610044578063a26f4d3b14610081578063dbd95f1d146100a357600080fd5b3661003f57005b600080fd5b34801561005057600080fd5b50600054610064906001600160a01b031681565b6040516001600160a01b0390911681526020015b60405180910390f35b34801561008d57600080fd5b506100a161009c366004610683565b6100c6565b005b6100b66100b13660046106fd565b61041c565b6040519015158152602001610078565b83811461010c5760405162461bcd60e51b815260206004820152600f60248201526e098cadccee8d040dad2e6dac2e8c6d608b1b60448201526064015b60405180910390fd5b60005a90504760005b868110156102665760006307d691e360e41b89898481811061013957610139610739565b9050602002013587878581811061015257610152610739565b604051602481019490945260200291909101356044830152506064810189905260840160408051601f198184030181529181526020820180516001600160e01b03166001600160e01b0319909416939093179092529051909150600090610805906101be90849061074f565b6000604051808303816000865af19150503d80600081146101fb576040519150601f19603f3d011682016040523d82523d6000602084013e610200565b606091505b50509050806102515760405162461bcd60e51b815260206004820152601760248201527f72656d6f76655374616b652063616c6c206661696c65640000000000000000006044820152606401610103565b5050808061025e90610794565b915050610115565b50600061027382476107ad565b9050600081116102b75760405162461bcd60e51b815260206004820152600f60248201526e139bc8151053c81c9958d95a5d9959608a1b6044820152606401610103565b60005a6102c490856107ad565b905060006102d23a836107c6565b9050828111156102df5750815b801561037357604051600090339083908381818185875af1925050503d8060008114610327576040519150601f19603f3d011682016040523d82523d6000602084013e61032c565b606091505b50509050806103715760405162461bcd60e51b815260206004820152601160248201527011d85cc81c99599d5b990819985a5b1959607a1b6044820152606401610103565b505b600061037f82856107ad565b9050801561040f57604051600090819083908281818185825af1925050503d80600081146103c9576040519150601f19603f3d011682016040523d82523d6000602084013e6103ce565b606091505b505090508061040d5760405162461bcd60e51b815260206004820152600b60248201526a109d5c9b8819985a5b195960aa1b6044820152606401610103565b505b5050505050505050505050565b60008160000361043f5760405163044044a560e21b815260040160405180910390fd5b47828110156104615760405163044044a560e21b815260040160405180910390fd5b6040805161ffff8716602482015260448082018790528251808303909101815260649091019091526020810180516001600160e01b031663202a766560e11b1790526000610804855a90846040516104b9919061074f565b600060405180830381858888f193505050503d80600081146104f7576040519150601f19603f3d011682016040523d82523d6000602084013e6104fc565b606091505b50509050806105625761050e836105ca565b60408051878152602081018790526000818301529051339161ffff8a16917f4c5e28bc8c03ee54b711933de6af71aa170e7365c3b284054a3af64cbbb25fe09181900360600190a3600093505050506105c3565b47801561057257610572816105ca565b60408051888152602081018890526001818301529051339161ffff8b16917f4c5e28bc8c03ee54b711933de6af71aa170e7365c3b284054a3af64cbbb25fe09181900360600190a360019450505050505b9392505050565b604051600090339083908381818185875af1925050503d806000811461060c576040519150601f19603f3d011682016040523d82523d6000602084013e610611565b606091505b505090508061063357604051633c31275160e21b815260040160405180910390fd5b5050565b60008083601f84011261064957600080fd5b50813567ffffffffffffffff81111561066157600080fd5b6020830191508360208260051b850101111561067c57600080fd5b9250929050565b60008060008060006060868803121561069b57600080fd5b853567ffffffffffffffff808211156106b357600080fd5b6106bf89838a01610637565b90975095506020880135945060408801359150808211156106df57600080fd5b506106ec88828901610637565b969995985093965092949392505050565b60008060006060848603121561071257600080fd5b833561ffff8116811461072457600080fd5b95602085013595506040909401359392505050565b634e487b7160e01b600052603260045260246000fd5b6000825160005b818110156107705760208186018101518583015201610756565b506000920191825250919050565b634e487b7160e01b600052601160045260246000fd5b6000600182016107a6576107a661077e565b5060010190565b818103818111156107c0576107c061077e565b92915050565b80820281158282048414176107c0576107c061077e56fea264697066735822122084de2d99530369c3216101a656cee5582eaca19a2750b37caa90fead4b5e871a64736f6c63430008140033","linkReferences":{}},"methodIdentifiers":{"burnedRegisterNeuron(uint16,bytes32,uint256)":"dbd95f1d","owner()":"8da5cb5b","unstakeAndBurn(bytes32[],uint256,uint256[])":"a26f4d3b"},"id":16}