{"abi":[{"type":"constructor","inputs":[],"stateMutability":"nonpayable"},{"type":"function","name":"registerNeuron","inputs":[{"name":"netuid","type":"uint16","internalType":"uint16"},{"name":"hotkey","type":"bytes32","internalType":"bytes32"}],"outputs":[{"name":"","type":"bool","internalType":"bool"}],"stateMutability":"payable"},{"type":"function","name":"unstakeAndBurn","inputs":[{"name":"hotkeys","type":"bytes32[]","internalType":"bytes32[]"},{"name":"netuid","type":"uint256","internalType":"uint256"},{"name":"amounts","type":"uint256[]","internalType":"uint256[]"}],"outputs":[],"stateMutability":"nonpayable"},{"type":"event","name":"NeuronRegistration","inputs":[{"name":"netuid","type":"uint16","indexed":true,"internalType":"uint16"},{"name":"hotkey","type":"bytes32","indexed":false,"internalType":"bytes32"},{"name":"caller","type":"address","indexed":true,"internalType":"address"}],"anonymous":false},{"type":"error","name":"BurnError","inputs":[]},{"type":"error","name":"NeuronRegistrationFailed","inputs":[]},{"type":"error","name":"ReceivedTaoIsZeroError","inputs":[]},{"type":"error","name":"RefundError","inputs":[]},{"type":"error","name":"RemoveStakeError","inputs":[]}],"bytecode":{"object":"0x608060405234801561001057600080fd5b50610657806100206000396000f3fe6080604052600436106100295760003560e01c80636d4707b01461002e578063a26f4d3b14610055575b600080fd5b61004161003c36600461048a565b610077565b604051901515815260200160405180910390f35b34801561006157600080fd5b50610075610070366004610509565b6101ac565b005b6040805161ffff8416602482015260448082018490528251808303909101815260649091019091526020810180516001600160e01b031663202a766560e11b1790526000904782610804815a90856040516100d29190610583565b600060405180830381858888f193505050503d8060008114610110576040519150601f19603f3d011682016040523d82523d6000602084013e610115565b606091505b505090508061013757604051630378022160e61b815260040160405180910390fd5b47600061014482856105c8565b905080341115610161576101613361015c83346105c8565b61040a565b604051878152339061ffff8a16907f4d5d42cac15d0e2788b750858aefe2290be18ca238df9c0f1f06508a28df72fa9060200160405180910390a36001955050505050505b92915050565b8381146101f15760405162461bcd60e51b815260206004820152600f60248201526e098cadccee8d040dad2e6dac2e8c6d608b1b604482015260640160405180910390fd5b60005a90504760005b8681101561031c5760006307d691e360e41b89898481811061021e5761021e6105db565b90506020020135878785818110610237576102376105db565b604051602481019490945260200291909101356044830152506064810189905260840160408051601f198184030181529181526020820180516001600160e01b03166001600160e01b0319909416939093179092529051909150600090610805906102a3908490610583565b6000604051808303816000865af19150503d80600081146102e0576040519150601f19603f3d011682016040523d82523d6000602084013e6102e5565b606091505b50509050806103075760405163032aa11160e31b815260040160405180910390fd5b50508080610314906105f1565b9150506101fa565b50600061032982476105c8565b90508060000361034c57604051630c0ae15160e21b815260040160405180910390fd5b60005a61035990856105c8565b905060006103673a8361060a565b9050828111156103745750815b61037e338261040a565b600061038a82856105c8565b905080156103fd57604051600090819083908281818185825af1925050503d80600081146103d4576040519150601f19603f3d011682016040523d82523d6000602084013e6103d9565b606091505b50509050806103fb57604051636d98cf1960e11b815260040160405180910390fd5b505b5050505050505050505050565b8015610486576000826001600160a01b03168260405160006040518083038185875af1925050503d806000811461045d576040519150601f19603f3d011682016040523d82523d6000602084013e610462565b606091505b5050905080610484576040516322c208af60e21b815260040160405180910390fd5b505b5050565b6000806040838503121561049d57600080fd5b823561ffff811681146104af57600080fd5b946020939093013593505050565b60008083601f8401126104cf57600080fd5b50813567ffffffffffffffff8111156104e757600080fd5b6020830191508360208260051b850101111561050257600080fd5b9250929050565b60008060008060006060868803121561052157600080fd5b853567ffffffffffffffff8082111561053957600080fd5b61054589838a016104bd565b909750955060208801359450604088013591508082111561056557600080fd5b50610572888289016104bd565b969995985093965092949392505050565b6000825160005b818110156105a4576020818601810151858301520161058a565b506000920191825250919050565b634e487b7160e01b600052601160045260246000fd5b818103818111156101a6576101a66105b2565b634e487b7160e01b600052603260045260246000fd5b600060018201610603576106036105b2565b5060010190565b80820281158282048414176101a6576101a66105b256fea2646970667358221220043804fae7e925e4619a1ee5e37959d5d47ee6f2373c5f87b25c5f8e8f65a74464736f6c63430008140033","linkReferences":{}},"methodIdentifiers":{"registerNeuron(uint16,bytes32)":"6d4707b0","unstakeAndBurn(bytes32[],uint256,uint256[])":"a26f4d3b"},"id":16}